:1005400041542B4349504D55583D310D0A004154FB
:100550002B4349505345525645523D312C38303883
:10056000310D0A0041542B43495053544F3D32380A
:1005700038300D0A0041542B43495053454E443DF9
:06058000302C320D0A00D0
:10039500E4F51EF50875093212063F1206207F3274
:1003A5007E001205957BFF7A0579401205B37F64BF
:1003B5007E001205957BFF7A05794E1205B37F64A1
:1003C5007E001205957BFF7A0579641205B37F8857
:1003D5007E131205951206A612049A8E218F227B92
:1003E500FF7A0579751205B37F0A7E00120595AE71
:1003F50021AF227C007D641202FC7E007F0ACFCDF6
:10040500CFCECCCE1202FCEF2430FF12068C1205A3
:1004150091AE21AF227C007D0A1202FCED2430FF53
:1004250012068C7FE87E031205957F871206B6AE0D
:1004350021AF227C007D641202FC7E007F0ACFCDB5
:10044500CFCECCCE1202FCEF2430FF1206BE7F8841
:100455001206B6AE21AF227C007D0A1202FCED2405
:1004650030FF1206BE7F891206B67F431206BE1202
:1004750006A67FE87E031205951206A6D3E522950A
:1004850009E5086480F8E52164809850030203DDDE
:05049500C2B60203DD08
:10063F0053877F759850758920758DFD758BFDC219
:0E064F00ABD28ED29CD29FD29ED2AFD2AC2222
:0300230002065D75
:10065D00C0E0C0D0C29885991DE51DB4240675086B
:09066D000075091CD0D0D0E03268
:0E068C00C2ACC2998F993099FDC299D2AC22AE
:1005B3008B238A248925AB23AA24A9251202E3606D
:1005C300130525E5257002052414F91202E3FF1231
:0505D300068C80E2220D
:0F0586008F807F057E00120595D2A27F057E0033
:10059500D3EF9400EE940040147D6E7C00ED1D7049
:0D05A500011CED4C70F7EF1F70E61E80E3A7
:0105B2002226
:10000300C2907F647E00EF1F70011EEF4E70F7D227
:0E001300907E007F04EF1F70011EEF4E70F70D
:0100210022BC
:100676002090FDA290B340FB7F047E00EF1F700127
:050686001EEF4E70F7AD
:01068B00224C
:1005D800C2900FBF0000D2900FBF00000FBF0000F5
:1005E800A29092017E007F08EF1F70011EEF4E70EF
:0305F800F7A20166
:0105FB0022DD
:1005FC00E4FDFBFA1205D8E433FFC43333335480E3
:10060C00FEEDC3134EFD0BBB00010AEB64084A70F0
:03061C00E3AF0544
:01061F0022B8
:0F04F1001200031206767F017E001205957FCC64
:10050000E4FEEF139201EFC313FF300113C290D248
:10051000907A007B08EB1B70011AEB4A70F7801B86
:10052000C2907A007B08EB1B70011AEB4A70F7D27D
:0F053000900BBB00010A0BBB00010A0EBE08C3F3
:01053F002299
:0806A6001204F17F440205007B
:0806AE001204F17FBE020500F9
:10049A001206AE1205FCA9071205FCEFFEE9FF8E53
:1004AA00238F24AC23AD24EC120229E4FBFA7980D1
:1004BA00783D12011E8F288E278D268C25D3E524A0
:1004CA009400E52364809480E4FFFEFD40047C3FB1
:1004DA0080027CBFAB28AA27A926A82512002D12C4
:0604EA0002628E238F2444
:0104F00022E9
:0806B600C2A0120586C2A222B7
:0806BE00D2A0120586C2A2229F
:10062000C2A0C2A1C2A27F381206B67F0E1206B6C1
:0F0630007F061206B67F011206B67F900206B64D
:100026000202CEE86480F8E933E83360110460F038
:10003600ED33EC337009E8FCE9FDEAFEEBFF220440
:1000460060DED3EB9FEA9EE99DE8C2E78CF0C2F73B
:1000560095F0400CE8CCF8E9CDF9EACEFAEBCFFB07
:1000660012029985D0F05804700320D5B3E80470C5
:10007600075002B2D50202D892D5EC0460F7E4CC60
:10008600C0E0C398F8603B94186008400DD0E0FBD0
:100096000202B0E4FBFAC9FC8028E830E406E4C9B1
:1000A600FBE4CAFCE830E305E4C9CACBFCE8540724
:1000B6006010F8C3E913F9EA13FAEB13FBEC13FC2F
:1000C600D8F130F52FC3E49CFCEF9BFFEE9AFEEDD2
:1000D60099FDD0E0FBEF4E4D4C701222DB0302027D
:1000E600D5EC2CFCEF33FFEE33FEED33FDED30E7C0
:1000F600EB0202B0EF2BFFEE3AFEED39FDD0E0FB4E
:1001060050130BBB00030202D8ED13FDEE13FEEFF6
:0801160013FFEC13FC0202B020
:10011E00EC4D6011E8497017ED33EC3304600DE4DB
:10012E00FCFFFEFD22E933E8330470F80202CE1222
:10013E00029958046009E4CC248150062850090223
:10014E0002D82840030202D5C0E0EB4A7044B980C1
:10015E0006D0E0FB0202C4EF4E701CBD8008EBFF20
:10016E00EAFEE9FD80EBE98DF0A4FEE5F002020760
:10017E00E9CDF9EAFEEBFFEF89F0A4FCE5F0CE89BC
:10018E00F0A42EFFE435F0CD89F0A42DFEE435F079
:10019E008067EF4E7005BD80D780C3EF8BF0A4ACA7
:1001AE00F0EE8BF0A42CFCE435F0F8EF8AF0A42CE2
:1001BE00E5F038FCE433CB8DF0A42CFCE5F03BF8F5
:1001CE00EE8AF0A42CFCE5F038F8E433CF89F0A4E5
:1001DE002CFCE5F038CF3400CE89F0A42FFFE5F0EB
:1001EE003EFEE433C98DF0A42EFEE5F039CD8AF043
:1001FE00A42FFFE5F03EFEE43DFD33D0E0FB5007BB
:10020E000BBB000F0202D8EC2CFCEF33FFEE33FEDB
:06021E00ED33FD0202B009
:1002240075F020800E75F010800575F0087D007E55
:10023400007F003392D530D503120332EC334010E3
:10024400EF33FFEE33FEED33FDEC33FCD5F0ED225E
:0E025400E5F0247EA2D513CC92E7CDCEFF229A
:10026200EDD2E7CD33EC3392D524814006E4FFFE94
:10027200FDFC22FCE4CFCECDCC24E0501174FF80F3
:10028200EDC3CC13CCCD13CDCE13CECF13CF047090
:07029200F030D5DE0203325B
:10029900E9D2E7C933E833F892D5EDD2E7CD33ECAB
:0702A90033FC5002B2D52224
:1002B000EC30E7100FBF000C0EBE00080DBD0004AF
:1002C0000BEB6014A2D5EB13FCED92E7FD2274FF5B
:1002D000FCFDFEFF22E480F8A2D574FF13FC7D80B4
:0302E000E480EFC8
:0300000002069A5B
:0C069A00787FE4F6D8FD758128020395F6
:1002E300BB010689828A83E0225002E722BBFE0219
:0902F300E32289828A83E493224C
:1002FC00C2D5EC30E709B2D5E4C39DFDE49CFCEE1D
:10030C0030E715B2D5E4C39FFFE49EFE120340C351
:10031C00E49DFDE49CFC800312034030D507C3E44C
:06032C009FFFE49EFE228B
:0E033200C3E49FFFE49EFEE49DFDE49CFC22DC
:10034000BC000BBE0029EF8DF084FFADF022E4CCA1
:10035000F875F008EF2FFFEE33FEEC33FCEE9DEC6A
:10036000984005FCEE9DFE0FD5F0E9E4CEFD22EDB0
:10037000F8F5F0EE8420D21CFEADF075F008EF2FFA
:10038000FFED33FD4007985006D5F0F222C398FDEB
:050390000FD5F0EA2288
:00000001FF
